:020000004E2987
:0E0006008312031322088A00210882000800DA
:100014000E3083120313FD00FD0B0E2800000800B0
:1000240083120313FB01FA01F9018030F800F10C8B
:10003400F00C031C26287408F90775080318750FBB
:10004400FA070318FB0A0310F01F2E287408FA0796
:1000540075080318750FFB07FB0CFA0CF90CF80C68
:10006400031C19287B08F3007A08F2007908F100D0
:060074007808F00008000E
:10007A00710DF80DF90D7408F8027508031C750F57
:10008A00F902F00DF10D0F30FC00710DF80DF90DAC
:10009A007408701C5628F8027508031C750FF902BB
:1000AA005B28F80775080318750FF907F00DF10DAD
:1000BA00FC0B4A28701867287408F8077508031893
:0800CA00750FF90700000800A2
:1000D200831603130711831212150C3097040800BC
:1000E200831203137408003A031D80287508003A2E
:1000F200031D8028FF30F0007F30F100D9288312E1
:100102000313FD01F901F8017108700403190034A9
:1001120071087506FA00FA1BFD09FB01F51F962806
:10012200F409F509F40A0319F50AF11F9D28F009EB
:10013200F109F00A0319F10A71087504FA00FA1BB1
:10014200B2283D207B18C528FD1F0034F009F109B3
:10015200F00A0319F10AF809F909F80A0319F90A68
:100162000034F51FC128F11BBD287108F900700881
:10017200F800F101F001A528F101F001F00A0034C4
:10018200F109F009FB0AA228F80A0319F90A74080E
:100192007802031DA52875087902031DA528F90117
:1001A200F801F00A0319F10AF11FA5280000FF3433
:0201B200080043
:1001B400831203139F01C0309F042009F0007008CC
:1001C40083169F051F179F1783122708F000F00D51
:1001D4007010F00D7010F00D701070089F041F1453
:1001E4000A201F151F1DF8280000F4281F101E08E0
:1001F400F100F00183161E08F0040030F104080039
:1002040003208A110A128000840AA10A0319A20A8F
:08021400F003031D022908009C
:10021C00831603131208013EF000F1010318F10AD2
:10022C0083122708F400F50112200630F200700842
:10023C00F4007108F500720803192929F50CF40C67
:10024C00F513FF3E22290430F1007408F000710808
:10025C0003193429F00D7010FF3E2E293030700533
:10026C00F3007408F0007508F100F10CF00CF113B8
:10027C00F10CF00CF113700895000F309705730812
:04028C0097040800CB
:0C02900083120313950117129712080047
:10029C009A2183120313121492147C308316920049
:1002AC0048216920831606108610831206108610CA
:1002BC00A701DA2070088312A3007108A40004308F
:1002CC00F4000030F50071207008A5007108A6003C
:1002DC007008A7000E21061486103330FB00BB30CB
:1002EC00FC00DF30FD00FD0B7929FC0B7929FB0BA1
:1002FC00792900000000061086143330FB00BB3057
:10030C00FC00DF30FD00FD0B8929FC0B8929FB0B60
:0A031C008929000000005E299229E3
:1003340020308400013083120313F0009830A100B0
:080344000130A20002210800B3
:020330000F3488
:02400E004A2F37
:00000001FF
