:02000000DE2CF4
:0E000600213083120313FD00FD0B07280800B4
:100014000F3083120313FC004730FD00FD0B102842
:0A002400FC0B10280000000008008B
:06002E00000000000800C4
:10003400FB14FB1F2428FF30F300F200F100F00052
:08004400FA0DF20CFF30080078
:10004C0083120313D81B2C2886112D288615581BB8
:10005C003128061132280615D81A3628861037286A
:10006C008614581A3B2806103C28061433184028CE
:10007C00061641280612861617208612D81948280B
:10008C0086114928861558194D2806114E28061533
:10009C00D81852288610532886145818572806103A
:1000AC005828061433185C2806165D280612861686
:1000BC0017208612331C64280A20652803200800A8
:0E00CC00F201F101F001F801F301003008002B
:0800DA00FA1FF21300300800C8
:1000E2007B15FB1F7B280130F300F201F101F001C7
:0800F200FA0DF20CFF300800CA
:1000FA008312031333105608D8002620331408003D
:0E010A008312031335088A00340882000800AF
:100118000E3083120313FD00FD0B90280000080029
:1001280083120313FA017308031D7A147708031D59
:10013800FA147A080319E028033A0319AB287A1845
:10014800A828F61FDE28DC28F21FDC28DE28720823
:100158008039FA00F21376088039F6137A06031903
:10016800B9287A080319DC28DE28770873020319EE
:10017800C028031CD428D828760872020319C72877
:10018800031CD428D828750871020319CE28031C2B
:10019800D428D828740870020319E0280318D8282E
:1001A800FA080319DE28DC28FA080319DC28DE28F7
:1001B80003140800031008000314031508000800BE
:1001C80083120313FB017308031D770803193B29E6
:1001D80072087606FA007708F3077E30031CF828C1
:1001E800F30203183E29FB28F302031C4129720875
:1001F800F8007108FC007008FD00F817F6170310E6
:10020800F201F101F0011830A0007D1C15297408D5
:10021800F00775080318750FF10776080318760FAD
:10022800F207F20CF10CF00CF80CFC0CFD0C0310AE
:10023800A00B0929F21B2529F80DF00DF10DF20D7F
:10024800F3037B1B701C3729F81F3729F00A0319A1
:10025800F10A0319F20A031D3729F20CF10CF00C0C
:10026800F30A03193E29FA1FF2130030432901301B
:100278006620432902301A204329043071200000E7
:0202880008006C
:10028A00A0017208031D5A297108F2007008F100D2
:10029A00F001A0157208031D5A297108F200F10134
:1002AA00A01120167208031968292008F302031DF9
:1002BA00031C6C290310F21B7029F00DF10DF20DCD
:1002CA00F30B60296C290130FC0066207329023087
:0E02DA00FC00712073290430FC006D20080028
:1002E800831203135608F2007208F100F20A570845
:1002F800F000D70A700884000008F0007108840034
:100308007008800071088400000803198C29782976
:060318005608F000080089
:10031E0083120313FD01F8017008031900347406EB
:10032E00FA00FA1BFD09FB01F41F9F29F409F40AD8
:10033E00F01FA329F009F00A70087404FA00FA1BE2
:10034E00C7297408F802F00D700DF80D7408F8073F
:10035E00F00D0630FC00700DF80D74087018F802E0
:10036E00701CF807F00DFC0BB229701CF8077B18F7
:10037E00D529FD1F0034F009F00AF809F80A0034F7
:10038E00F41FD229F01BCF297008F800F001C02904
:10039E00F001F00A0034F009FB0AA829F80A7408E3
:1003AE007802031DC029F801F00AF01FC029FF349E
:0203BE00080035
:1003C00083120313D401D5014908D0004A08D10093
:1003D0004B08D2004C08D3005308FF3A031DFA29FA
:1003E0005208FF3A031DFA295108FF3A031DFA2962
:1003F0005008FF3A031D042A4D08D6002330D700C9
:1004000074210330F000DD2B0130CE00D21F132AFF
:1004100080305206F0007008D200CE0A4D088400E9
:100420002D308000CD0A0030F0005306031D222A33
:1004300070085206031D222A70085106031D222A45
:100440005008003A031D2B2A4D08D6002130D70052
:100450007421F001DD2B5308FF3A031D392A52089D
:10046000003A031D392A5108003A031D392A500861
:10047000003A031D432A4D08D6002730D7007421C7
:100480004E08F000DD2B0030F4000030F5000030A5
:10049000F6007F30F7005008F0005108F1005208D4
:1004A000F2005308F3009420013003180030F000EC
:1004B00070080319762A5008F0005108F10052081C
:1004C000F2005308F3000030F4000030F500203053
:1004D000F6008230F700E4207008D0007108D100E7
:1004E0007208D2007308D300D503432A0030F40009
:1004F0000030F5002030F6008230F7005008F000A0
:100500005108F1005208F2005308F3009420013022
:10051000031C0030F00070080319A92A5008F000ED
:100520005108F1005208F2005308F300CD30F400F6
:10053000CC30F5004C30F6007B30F700E42070083A
:10054000D0007108D1007208D2007308D300D50A18
:10055000762AFF305005F800FF305105F9007F3052
:100560005205FA0000305305FB007808F4007908C2
:10057000F5007A08F6007B08F700F40DF50DF60D8E
:10058000F70D741000305005F00000305105F100F7
:1005900000305205F200FF305305F3007008D00020
:1005A0007108D1007208D2007308D3007408500497
:1005B000F00075085104F10076085204F200770843
:1005C0005304F3007008D0007108D1007208D20003
:1005D0007308D3007F305302F0007008CF00013061
:1005E000D3007008F4005008F0005108F1005208E0
:1005F000F2005308F30074080319052BF00DF10DF8
:10060000F20DF30D7010FF3EFC2A7008D000710847
:10061000D1007208D2007308D3005308303EF000B6
:100620004D08840070088000CD0A80305506F00027
:100630008030013A7002031C262B8030063AF0000D
:10064000803055067002031C262B2D2B4D0884008C
:100650002E308000CD0A0130D4000630CF004F0884
:10066000003A03198B2BD3015008F0005108F10018
:100670005208F2005308F300F00DF10DF20DF30DE6
:100680007010F00DF10DF20DF30D70105008F00721
:1006900051080318510FF10752080318520FF207BF
:1006A00053080318530FF3077008D0007108D100E6
:1006B0007208D2007308D3005008F0005108F1000E
:1006C0005208F2005308F300F00DF10DF20DF30D96
:1006D00070107008D0007108D1007208D200730841
:1006E000D3005308303EF0004D08840070088000AD
:1006F000CD0A5408003A031D892BD5035508003A4A
:10070000031D892B4D0884002E308000CD0A013056
:10071000D400CF032F2BFF304D0784000008303A60
:10072000031D942BCD038B2BFF304D078400000855
:100730002E3A031D9C2BCD035508003A0319D92BE3
:100740004D08840065308000CD0A80305506F000E9
:100750008030003A70020318B52B4D0884002D300C
:100760008000CD0A5508003CD5005508CF008030E8
:10077000093AF0008030550670020318CB2B0A307E
:10078000F4004F08F0008F213030F0074D0884004E
:1007900070088000CD0A0A30F4004F08F0008F2165
:1007A0007808F0003030F0074D08840070088000B1
:0C07B000CD0A4D0884008001F001080013
:1007BC00831203139F01C0309F042B09F0007008B3
:1007CC0083169F051F179F1783124908F000F00D21
:1007DC007010F00D7010F00D701070089F041F1445
:1007EC008C201F151F1DFC2B0000F82B1F101E0842
:1007FC00F100F00183161E08F0040030F10408002B
:10080C00831203137008F8007108F000F101F20173
:10081C00F301FB01FC019630F300FA017008F100C2
:0C082C007808F000F801F20145210800F6
:100838002E2C803083120313C900412CC030C9000C
:10084800412C9430C900412CD430C900412C80304F
:10085800C900412C831203134908013A03191D2CBE
:100868004908023A0319222C4908033A0319252C8E
:100878004908043A0319282C2B2C4A03F00049088C
:10088800F0077008C9007008D80026203310CC0182
:100898004C084B078400000803195A2C4C084B07D6
:1008A80084000008D6007D20CC0A4C2C33140800A4
:1008B8008316031386120612061086100611861177
:1008C80083128612061286110611861006100A2057
:1008D8000A200A20861406148616172086120A2073
:1008E8008616172086120A208616172086120A20D6
:1008F80006108616172086120A20861617208612DA
:10090800861086158616172086120A208611061468
:1009180086161720861206108616172086120A20B9
:1009280086161720861206148616172086120A20A5
:1009380006108616172086128615061586140614C4
:0C0948008616172086120A2033140800BF
:10095400FF3083120313B600FF30B700FF30B80036
:10096400FF309F01C0309F042B09F00070088316EC
:0C0974009F051F179F1783121F14080017
:1009800085208A110A128000840AB40A0319B50A64
:08099000F003031DC02C080058
:1009980083120313CA014A0849078400000803198F
:1009A800DD2C4A08490784000008D6007D20CA0AC1
:0409B800CF2C080038
:1009BC002425831603130514AA245C240C30D800B8
:1009CC0026200130D80026200130C9000130CA0091
:1009DC002C30CB001C24C901DE2306242330F40068
:1009EC00DB30F5007930F6007D30F700E42070083C
:1009FC00C9007108CA007208CB007308CC003930EA
:0E0A0C00CD00E0213930C900CC24EA2C0C2D9D
:100A480021308400123083120313F0001230B400F6
:080A58000530B500C0240800C0
:040A24003034003436
:080A28004E3461344E340034F9
:080A300049344E344634003411
:020A38000F3479
:0E0A3A00543465346D3470343D34203400344F
:02400E004A2F37
:00000001FF
