:020000007C2A58
:06000600000000000800EC
:10000C000F3083120313FC004730FD00FD0B0C284E
:0A001C00FC0B0C2800000000080097
:0E002600213083120313FD00FD0B1728080084
:1000340083160313B11B21288312861123288312EC
:1000440086158316311B2928831206112B28831247
:1000540006158316B11A31288312861033288312A9
:1000640086148316311A3928831206103B2883120A
:10007400061448183F280616402806128616032040
:1000840086128316B1194928831286114B288312CC
:1000940086158316311951288312061153288312A9
:1000A40006158316B1185928831286105B2883120B
:1000B400861483163118612883120610632883126C
:1000C40006144818672806166828061286160320A0
:0E00D4008612481C6F28062070281320080092
:1000E20083120313F801F9011030FC00710DF80DB1
:1000F200F90D7408F8027508031C750FF90203184C
:1001020089287408F80775080318750FF907031092
:0A011200F00DF10DFC0B772808003A
:10011C0083160313AC01AE01AF011030B0000430F4
:10012C002F020318C328F030831288008030F000AF
:10013C007008083E840083163009F00070088000B7
:10014C00032003200F3083120805F000700883167B
:10015C00AD0070080319BD282E08AC002D0803193A
:10016C00BB28AD0CAD13AC0AB4280430AF00B00DF5
:10017C0030100430AE07AF0A95282C08F0000800A8
:10018C0083120313481083162C08B1001A2048144C
:02019C00080059
:10019E00063083120313FD00FD0BD3280000080068
:0E01AE00831203134A088A00490882000800E1
:1001BC0083160313AF0105302F020318EC282F0808
:1001CC002E07840020308000AF0AE1282F082E076C
:1001DC0084008001AF032F082E07B0000A30F40012
:1001EC00F5012C08F0002D08F10071207808F000C2
:1001FC007908F1003030F00783163008840070085D
:10020C0080000A30F400F5012C08F0002D08F100F4
:10021C00712070088316AC007108AD0000307106B7
:10022C00031D1A2900307006031D1D291F29AF0359
:04023C00F12808009D
:1002400083120313EE01EF0169088316AA008312DB
:100250006A088316AB00803083126A06F000803093
:100260007002031D35290030690203184629013048
:10027000EE000030EF006908003C8316AA008312EC
:100280006A08031C013E8316AB01AB0283162A08E1
:10029000AC002B08AD0083126B088316AE00DE2085
:1002A00006308312EC000030ED006D08003C031DA9
:1002B0005B296C08003C031876296C086B07F20078
:1002C00001306C02F0000030031C013E6D02F100B1
:1002D00070086B0784000008F00072088400700842
:1002E00080000130EC02031CED0355296B088400EB
:1002F000203080006E086F0403199429EC01ED0191
:100300006C086B0784000008203A031D8B29EC0A57
:100310000319ED0A80290130EC02031CED036C087F
:0A0320006B0784002D3080000800F8
:10032A0083120313EA016A086907840000080319A3
:10033A00A7296A086907840000088316AC00C6204A
:06034A00EA0A98290800F0
:10035000831203136908840000080319BC29690883
:1003600084000008F1006A08840071080006031D7B
:10037000BC29E90AEA0AA829690884000008F000F3
:100380006A0884000008F002F101031CF103080070
:100390008E2070088312E9000F300805F000031961
:0C03A000D329CF20CC296908F000080008
:1003AC00D7208A110A128000840AC90A0319CA0AC2
:0803BC00F003031DD62908001F
:1003C400803083120313F0007008083E8400FF306D
:0403D400800008009D
:1003D800FE29803083120313E900112AC030E90096
:1003E800112A9430E900112AD430E900112A80300A
:1003F800E900112A831203136908013A0319ED2948
:100408006908023A0319F2296908033A0319F52918
:100418006908043A0319F829FB296A03F0006908F6
:10042800F0077008E90070088316B1001A20481018
:10043800EC016C086B078400000803192C2A6C086F
:100448006B07840000088316AC00C620EC0A1D2A3E
:04045800481408003C
:10045C0083160313861206120610861006118611D7
:10046C0083128612061286110611861006100620BB
:10047C0006200620861406148616032086120620F3
:10048C008616032086120620861603208612062066
:10049C000610861603208612062086160320861266
:1004AC0086108615861603208612062086110614E1
:1004BC008616032086120610861603208612062046
:1004CC008616032086120614861603208612062032
:1004DC000610861603208612861506158614061439
:0C04EC0086160320861206204814080023
:1004F8001224013083160313A0000030A10002303B
:10050800A2000030A3000330A4000030A50004308E
:10051800A6000030A7000530A8000030A9002E2250
:100528000C308316B1001A20E221831607108312BB
:1005380007100130E9000130EA003930EB00EC2106
:100548001530FB004B30FC00BE30FD00FD0BAA2A25
:10055800FC0BAA2AFB0BAA2A000001308316B10063
:100568001A20CB01CC0180304C06F000803070029C
:10057800031DC02A04304B020318B02BC821700891
:10058800CD00CE014D084E040319C22A132B0730A3
:10059800CD000030CE00932B0830CD000030CE00C7
:1005A800932B0930CD000030CE00932B4130CD0085
:1005B800CE01932B0430CD000030CE00932B0530B4
:1005C800CD000030CE00932B0630CD000030CE0099
:1005D800932B4230CD00CE01932B0130CD0000305B
:1005E800CE00932B0230CD000030CE00932B033089
:1005F800CD000030CE00932B4330CD00CE01932B9D
:100608002A30CD00CE01932BCD01CE01932B233080
:10061800CD00CE01932B4430CD00CE01932B00307A
:100628004E06031D192B01304D060319CB2A003045
:100638004E06031D212B02304D060319D02A003027
:100648004E06031D292B03304D060319D52A003009
:100658004E06031D312B04304D060319DA2A0030EB
:100668004E06031D392B05304D060319DE2A0030CE
:100678004E06031D412B06304D060319E32A0030B0
:100688004E06031D492B07304D060319E82A003092
:100698004E06031D512B08304D060319ED2A003074
:1006A8004E06031D592B09304D060319F12A003057
:1006B8004E06031D612B0A304D060319F62A003039
:1006C8004E06031D692B0B304D060319FB2A00301B
:1006D8004E06031D712B0C304D060319002B0030FC
:1006E8004E06031D792B0D304D060319042B0030DF
:1006F8004E06031D812B0E304D060319082B0030C2
:100708004E06031D892B0F304D0603190B2B0030A5
:100718004E06031D912B10304D0603190F2B4B0865
:10072800F0004C08F100F00DF10D701070084F3E0C
:1007380084004D0880004E08840A80004D08E900B6
:100748004E08EA005930EB0020212830E9009521B5
:10075800CB0A0319CC0AB72A4F30E900A030EA00C7
:10076800A82100307106031DBB2B00307006031D45
:10077800CA2B01308316B1001A200130E90001307C
:10078800EA002030EB00EC210714E32B013083163C
:10079800B1001A200130E9000130EA002A30EB00EC
:1007A800EC211530FB004B30FC00BE30FD00FD0B8A
:1007B800DB2BFC0BDB2BFB0BDB2B00009D2AE32B3D
:1008240020308400283083120313F000E930C9001B
:080834000330CA00D6210800C0
:1007D200573465346C3463346F346D3465340034AB
:0407E2002A34003481
:1007E600573472346F346E34673420345034613485
:0E07F6007334733477346F34723464340034E7
:1008040045346E3474346534723420345034613475
:0E0814007334733477346F34723464340034C8
:02400E004A2F37
:00000001FF
