:020000000328D3
:100006008316031386018312860186010B30FB00DB
:100016002630FC005D30FD00FD0B0F28FC0B0F2881
:10002600FB0B0F2800000000013086000B30FB00A0
:100036002630FC005D30FD00FD0B1F28FC0B1F2841
:10004600FB0B1F2800000000023086000B30FB006F
:100056002630FC005D30FD00FD0B2F28FC0B2F2801
:10006600FB0B2F2800000000033086000B30FB003E
:100076002630FC005D30FD00FD0B3F28FC0B3F28C1
:10008600FB0B3F2800000000043086000B30FB000D
:100096002630FC005D30FD00FD0B4F28FC0B4F2881
:1000A600FB0B4F2800000000053086000B30FB00DC
:1000B6002630FC005D30FD00FD0B5F28FC0B5F2841
:1000C600FB0B5F2800000000063086000B30FB00AB
:1000D6002630FC005D30FD00FD0B6F28FC0B6F2801
:1000E600FB0B6F2800000000063086000B30FB007B
:1000F6002630FC005D30FD00FD0B7F28FC0B7F28C1
:10010600FB0B7F2800000000073086000B30FB0049
:100116002630FC005D30FD00FD0B8F28FC0B8F2880
:10012600FB0B8F2800000000083086000B30FB0018
:100136002630FC005D30FD00FD0B9F28FC0B9F2840
:10014600FB0B9F2800000000093086000B30FB00E7
:100156002630FC005D30FD00FD0BAF28FC0BAF2800
:0C016600FB0BAF28000000000828B828A0
:02400E004A2F37
:00000001FF
