:020000000328D3
:1000060083160313860183128601403086000B3067
:10001600FB002630FC005D30FD00FD0B1028FC0BBC
:100026001028FB0B102800000000793086000B30EA
:10003600FB002630FC005D30FD00FD0B2028FC0B8C
:100046002028FB0B202800000000243086000B30FF
:10005600FB002630FC005D30FD00FD0B3028FC0B5C
:100066003028FB0B302800000000303086000B30B3
:10007600FB002630FC005D30FD00FD0B4028FC0B2C
:100086004028FB0B402800000000193086000B308A
:10009600FB002630FC005D30FD00FD0B5028FC0BFC
:1000A6005028FB0B502800000000123086000B3051
:1000B600FB002630FC005D30FD00FD0B6028FC0BCC
:1000C6006028FB0B602800000000023086000B3021
:1000D600FB002630FC005D30FD00FD0B7028FC0B9C
:1000E6007028FB0B702800000000783086000B306B
:1000F600FB002630FC005D30FD00FD0B8028FC0B6C
:100106008028FB0B80280000000086010B30FB00D6
:100116002630FC005D30FD00FD0B8F28FC0B8F2880
:10012600FB0B8F2800000000103086000B30FB0010
:100136002630FC005D30FD00FD0B9F28FC0B9F2840
:0C014600FB0B9F28000000000828A828E0
:02400E004A2F37
:00000001FF
