:020000000329D2
:0E000600213083120313FD00FD0B07280800B4
:100014000F3083120313FC004730FD00FD0B102842
:0A002400FC0B10280000000008008B
:06002E00000000000800C4
:1000340083120313C61B2028861121288615461B0C
:100044002528061126280615C61A2A2886102B28C4
:100054008614461A2F280610302806143C18342813
:10006400061635280612861617208612C6193C284D
:1000740086113D2886154619412806114228061581
:10008400C618462886104728861446184B2806109A
:100094004C2806143C1850280616512806128616B9
:1000A400172086123C1C58280A20592803200800CF
:0E00B400831203133E088A003D0882000800F4
:1000C200831203133C104508C6001A203C14080092
:1000D2008316031386120612061086100611861165
:1000E20083128612061286110611861006100A2045
:1000F2000A200A20861406148616172086120A2061
:100102008616172086120A208616172086120A20C3
:1001120006108616172086120A20861617208612C7
:10012200861086158616172086120A208611061456
:1001320086161720861206108616172086120A20A7
:1001420086161720861206148616172086120A2093
:1001520006108616172086128615061586140614B2
:0C0162008616172086120A203C140800A4
:10016E00C928803083120313C100DC28C030C100BF
:10017E00DC289430C100DC28D430C100DC2880306B
:10018E00C100DC28831203134108013A0319B82871
:10019E004108023A0319BD284108033A0319C02841
:1001AE004108043A0319C328C6284203F000410847
:1001BE00F0077008C1007008C6001A203C10C40178
:1001CE0044084307840000080319F5284408430730
:1001DE0084000008C5006120C40AE7283C1408000A
:1001EE005A208A110A128000840ABD0A0319BE0A17
:0801FE00F003031DF7280800BF
:10020600483083120313A0006F30A1007730A2009C
:100216002030A3006130A4007230A5006530A6002E
:100226002030A7007930A8006F30A9007530AA00E9
:100236003F30AB00AC014830AD006530AE006C30ED
:10024600AF006C30B0006F30B1002030B2004B30E0
:10025600B3006130B4007230B5007430B600683057
:10026600B7006930B8006B30B9002130BA00BB0165
:1002760069200C30C6001A200130BF000030C000D3
:100286008030F000803040067002031D4C293F0884
:10029600103C031C6F290130C1000130C2002D3013
:1002A600C300B7200230C1003F08C2002030C3009F
:1002B600B7200330FB000830FC007730FD00FD0B53
:1002C6006229FC0B6229FB0B62290130C6001A2049
:0C02D600BF0A0319C00A43293F29702900
:02400E004A2F37
:00000001FF
